:020000040800F2
:1000000000000220694000087D0900087F090008FF
:100010008109000883090008850900080000000024
:100020000000000000000000000000008709000838
:1000300089090008000000008B0900088D090008EC
:10004000B9400008B9400008B9400008B9400008AC
:10005000B9400008B9400008B9400008B94000089C
:10006000B9400008B9400008B9400008B94000088C
:10007000B9400008B9400008B9400008B94000087C
:10008000B9400008B9400008B9400008B94000086C
:10009000B9400008B9400008B9400008B94000085C
:1000A000B9400008B9400008B9400008B94000084C
:1000B000B9400008B9400008B9400008B94000083C
:1000C000B9400008B9400008B9400008B94000082C
:1000D000B9400008B9400008B9400008B94000081C
:1000E000B9400008B940000800000000B94000080D
:1000F000B9400008B9400008B9400008B9400008FC
:10010000B9400008B9400008B9400008B9400008EB
:10011000B9400008B9400008B9400008B9400008DB
:10012000B9400008B9400008B9400008B9400008CB
:10013000B9400008B9400008B9400008B9400008BB
:1001400000000000000000000000000000000000AF
:10015000B9400008B9400008B9400008B94000089B
:10016000B9400008B9400008B9400008B94000088B
:10017000B9400008B9400008B9400008000000007C
:10018000B9400008B9400008B9400008B94000086B
:10019000B9400008B9400008B9400008B94000085B
:1001A000B9400008B9400008B9400008B94000084B
:1001B000B9400008B9400008B9400008B94000083B
:1001C000B9400008B9400008B9400008B94000082B
:1001D000B9400008B9400008B9400008B94000081B
:1001E000B9400008B9400008B9400008B94000080B
:1001F000B9400008B9400008B9400008B9400008FB
:10020000B9400008B9400008B9400008B9400008EA
:10021000B9400008B9400008B9400008B9400008DA
:10022000B9400008B9400008B940000800000000CB
:10023000B9400008B940000800000000B9400008BB
:10024000B9400008B9400008B9400008B9400008AA
:10025000B9400008B9400008B9400008B94000089A
:10026000B9400008B9400008B9400008B94000088A
:10027000B9400008B9400008B9400008000000007B
:10028000B9400008B9400008B9400008000000006B
:0802900000000000B940000865
:1002980010B5054C237833B9044B13B10448AFF3B8
:1002A80000800123237010BDD00000200000000052
:1002B800144100080C4B43B10C480D4910B5AFF37D
:1002C80000800C48036823B910BD0A48036833B995
:1002D8007047094B002BF7D0BDE810401847064B74
:1002E800002BF5D0184700BF00000000144100089B
:1002F800D4000020100000200000000053B94AB9C3
:10030800002908BF00281CBF4FF0FF314FF0FF3015
:1003180000F07AB9ADF1080C6DE904CE00F006F8EA
:10032800DDF804E0DDE9022304B070472DE9F04769
:100338008C460D460446089E002B51D18A4217462A
:100348006DD9B2FA82FEBEF1000F0BD0CEF1200CAF
:1003580001FA0EF520FA0CFC02FA0EF74CEA050C2D
:1003680000FA0EF44FEA174A250CBCFBFAF81FFAFC
:1003780087F90AFB18CC45EA0C4508FB09F3AB42A0
:100388000AD9ED1908F1FF3280F02381AB4240F21F
:100398002081A8F102083D44ED1AA4B2B5FBFAF099
:1003A8000AFB105544EA054400FB09F9A14509D99F
:1003B800E41900F1FF3380F00A81A14540F207817A
:1003C80002383C44A4EB090440EA08400021002E0E
:1003D80061D024FA0EF4002334607360BDE8F0871E
:1003E8008B4207D9002E54D0002186E82100084608
:1003F800BDE8F087B3FA83F1002940F08E80AB4264
:1004080002D3824200F2FA80841A65EB03050120C8
:10041800AC46002E3FD086E81010BDE8F08712B930
:100428000127B7FBF2F7B7FA87FEBEF1000F34D108
:10043800EB1B3A0C1FFA87FC0121B3FBF2F8250CE1
:1004480002FB183345EA03450CFB08F3AB4207D916
:10045800ED1908F1FF3002D2AB4200F2D18080469C
:10046800ED1AA3B2B5FBF2F002FB105543EA0544BE
:100478000CFB00FCA44507D9E41900F1FF3302D2B4
:10048800A44500F2B8801846A4EB0C0440EA0840E2
:100498009DE731463046BDE8F087CEF1200405FAE5
:1004A8000EF307FA0EF720FA04F83A0C25FA04F4CA
:1004B80048EA0308B4FBF2F14FEA184502FB11447D
:1004C8001FFA87FC45EA044501FB0CF3AB4200FA2E
:1004D8000EF409D9ED1901F1FF3080F08A80AB42A2
:1004E80040F2878002393D44EB1A1FFA88F5B3FBC6
:1004F800F2F002FB103345EA034500FB0CF3AB4274
:1005080007D9ED1900F1FF386FD2AB426DD9023827
:100518003D44EB1A40EA01418FE7C1F1200722FA76
:1005280007F88B4005FA01F448EA030320FA07FEAE
:100538004FEA134CFD404EEA040EB5FBFCF94FEAB6
:100548001E440CFB19551FFA83F844EA054509FBBC
:1005580008F4AC4202FA01F200FA01FA08D9ED18DF
:1005680009F1FF3043D2AC4241D9A9F102091D4437
:100578002D1B1FFA8EFEB5FBFCF00CFB10554EEA46
:10058800054400FB08F8A04507D9E41800F1FF3539
:1005980029D2A04527D902381C4440EA0940A4EBD7
:1005A8000804A0FB02894C45C6464D4615D312D017
:1005B80056B1BAEB0E0364EB050404FA07F7CB4017
:1005C8001F43CC40376074600021BDE8F0871846AF
:1005D800F8E69046E0E6C245EAD2B8EB020E69EBCF
:1005E80003050138E4E72846D7E7404691E7814606
:1005F800BEE7014678E702383C4445E7084608E785
:10060800A8F102083D442BE7704700BF2DE9F041EF
:100618008CB000240794089409940A940B944F4BC7
:10062800D3F8E02042F00402C3F8E020D3F8E02039
:1006380002F004020092009AD3F8E02042F080020F
:10064800C3F8E020D3F8E02002F080020192019A7A
:10065800D3F8E02042F00102C3F8E020D3F8E0200C
:1006680002F001020292029AD3F8E02042F002025C
:10067800C3F8E020D3F8E02002F002020392039AC4
:10068800D3F8E02042F00802C3F8E020D3F8E020D5
:1006980002F008020492049AD3F8E02042F04002E3
:1006A800C3F8E020D3F8E02002F040020592059A52
:1006B800D3F8E02042F01002C3F8E020D3F8E0308D
:1006C80003F010030693069BDFF8A480224644F249
:1006D8000101404602F02AFC214F22464FF4806176
:1006E800384602F023FC1F4E22460221304602F013
:1006F8001DFC4FF4005307930894099407A91A485E
:1007080002F016FB44F201030793012508950994AA
:100718000A9407A9404602F00BFB4FF48063079345
:10072800089509940A9407A9384602F001FB80232A
:1007380007934FF488130893099407A90B4802F00C
:10074800F7FA02230793089509940A9407A93046F3
:1007580002F0EEFA0CB0BDE8F08100BF0044025888
:10076800000C0258001002580008025800180258DD
:100778000004025872B6FEE710B51648164B03601F
:100788004268002313704268802151704268E12159
:1007980091704268D37042681371426853710123A3
:1007A80003720E4BC3600E4B036140F2F453436176
:1007B80000F0BEFC58B90B4C34220021204603F04F
:1007C8009DFC212323604FF44033636110BDFFF784
:1007D800D1FF00BF84050020008002407000002087
:1007E800100000200C06002008B51548154B0360C2
:1007F8004FF4E133436000238360C36003610C223C
:1008080042618361C36103624362836203F07EF8DD
:1008180070B900210A4803F0F2F858B900210848D5
:1008280003F012F940B9064803F0CAF830B908BD18
:10083800FFF7A0FFFFF79EFFFFF79CFFFFF79AFF68
:10084800EC0000200048004008B50B480B4B036043
:10085800092343600222C2600023036182610122EE
:10086800C261036243628262C262036303F011F9E8
:1008780000B908BDFFF77EFF7C010020000008409A
:1008880000B59DB04C22002109A803F037FC2022B6
:10089800002101A803F032FC022002F057FB0023DC
:1008A8000093264B9A6942F440429A619B6903F48B
:1008B80040430093224BDA6A42F00102DA62DB6AB3
:1008C80003F001030093009B1C4B9B6913F4005F2A
:1008D800FAD0012209924FF4A0230A93022312931B
:1008E800139314927822159216930F221792189345
:1008F8000C23199300231A931B9309A800F0B0FC4A
:10090800B8B93F23019303230293002303930823D9
:1009180004934023059306934FF48062079208934B
:1009280004210DEB010001F0CDF820B91DB05DF8F0
:1009380004FBFFF71FFFFFF71DFF00BF0048025829
:100948000004005808B502F05BFBFFF799FFFFF7BA
:100958005DFEFFF711FFFFF747FFFFF775FF022165
:10096800034802F0E9FA642002F08AFBF7E700BFC7
:1009780000100258FEE7FEE7FEE7FEE7FEE77047D5
:100988007047704708B502F069FB08BD82B0074B95
:10099800D3F8F42042F00202C3F8F420D3F8F4307C
:1009A80003F002030193019B02B070470044025810
:1009B80070B58CB000230793089309930A930B939F
:1009C8000268434B9A4201D00CB070BD414BD3F83A
:1009D800D82042F40042C3F8D820D3F8D82002F433
:1009E80000420092009AD3F8D82042F48032C3F82B
:1009F800D820D3F8D82002F480320192019AD3F893
:100A0800D82042F40032C3F8D820D3F8D82002F412
:100A180000320292029AD3F8E02042F00402C3F8AE
:100A2800E020D3F8E02002F004020392039AD3F8FE
:100A3800E02042F00102C3F8E020D3F8E02002F001
:100A480001020492049AD3F8E02042F00202C3F8AB
:100A5800E020D3F8E02002F002020592059AD3F8CC
:100A6800E02042F04002C3F8E020D3F8E03003F081
:100A780040030693069B32230793022608960B250C
:100A88000B9507A9144802F053F986230793089693
:100A9800002409940A940B9507A9104802F048F914
:100AA8004FF400530793089609940A940B9507A9E5
:100AB8000B4802F03DF94FF4205307930896099428
:100AC8000A940B9507A9074802F032F97CE700BFA2
:100AD80000800240004402580008025800000258F2
:100AE800000402580018025810B5B6B00446002198
:100AF80031913291339134913591BC2202A803F09F
:100B0800FDFA22681B4B9A4201D036B010BD36A8B8
:100B1800022340F8D03D01F06FFA38BB164BD3F8EA
:100B2800E82042F48022C3F8E820D3F8E82002F451
:100B380080220092009AD3F8E02042F00802C3F81D
:100B4800E020D3F8E03003F008030193019B4FF451
:100B58004073319302233293002333933493072352
:100B6800359331A9054802F0E3F8CEE7FFF702FE16
:100B7800D4E700BF0048004000440258000C025867
:100B880070B5B6B004460021319132913391349159
:100B98003591BC2202A803F0B1FA2268234B9A428D
:100BA80001D036B070BD4FF4802302934FF4801308
:100BB800239302A801F020FA002833D102F0F0F9BB
:100BC8001B4CD4F8E03043F00103C4F8E030D4F80B
:100BD800E03003F001030093009B4FF4C8533193B6
:100BE800022332930025339534950A233593114E09
:100BF80031A9304602F09CF84FF4007331933295D6
:100C0800339531A9304602F093F8D4F8D83043F040
:100C18000063C4F8D830D4F8D83003F000630193E7
:100C2800019BBEE7FFF7A6FDC8E700BF000008402C
:100C380000440258000002580649CB6823F4E063D8
:100C48001B041B0C000200F4E0600343024A1A4331
:100C5800CA60704700ED00E00000FA0530B4144B9C
:100C6800DB68C3F30223C3F10704042C28BF042460
:100C78001D1D062D13D9033B012505FA04F4013C7B
:100C88002140994005FA03F3013B1340194300281A
:100C980007DB0901C9B2074B195430BC7047002360
:100CA800EAE700F00F000901C9B2034B1954F4E751
:100CB80000ED00E000E400E014ED00E00138B0F1E0
:100CC800807F0AD2064B5860F021064A82F823102A
:100CD8000020986007221A6070470120704700BF03
:100CE80010E000E000ED00E030B48B680A681343C0
:100CF8000A7943EAC2630A7B43EAC2534A7B43EA5E
:100D080082538A7B43EA4253CA7B43EA02530A7CF2
:100D1800002A40F0B0804FF400221A434B7C002B8D
:100D280040F0AB804FF4003313438A7C43EA02431C
:100D38004A6913438A6913430A7F43EA02334A7FA5
:100D480043EAC2238A7F002A40F099804FF48062E8
:100D58001343CA7F43EA422291F82030002B40F027
:100D680090804FF4807313434A6A134391F8282004
:100D780043EA0213CA6A13430468226822F07F42D6
:100D880022F47B0222F4FE4222F07C021343236009
:100D9800CA6B91F838301B0643EA426391F8302059
:100DA80043EA824391F8312043EA424391F83220E2
:100DB800002A68D14FF4803213434A6B1343046806
:100DC800626822F07C5222F4EF2222F4FF6222F0C1
:100DD80007021343636091F840204B6C43EA0223F7
:100DE8000468E5682B4A2A401343E36091F85420CD
:100DF8000B6D43EA420291F84C30002B45D1802319
:100E080013438A6C43EA02430468226F22F0F20219
:100E18001204120C1343236791F8563091F85520A9
:100E280043EA42030468D4F8902022F003021343F3
:100E3800C4F890300268D2F8003D23F072038C6D3C
:100E48002343C2F8003DCA6D91F86030FBB100231E
:100E5800134391F8612043EA021391F8622043EAB0
:100E6800C2030168D1F8302D22F07B021343C1F888
:100E7800303D30BC704700224FE7002354E7002282
:100E880066E700236FE7002296E70023B8E74023D0
:100E9800DEE700BFF0FEFFFF70B4026802F5805283
:100EA80014681E4B23400C68234313600A798B682F
:100EB80043EA02330A7B43EAC233056841F2040479
:100EC8002E59174A324013432B514A7B0B6A43EA87
:100ED8000243026802F588521568124C2C402343DD
:100EE80013600B690A7D43EA02134A7F43EA02331F
:100EF800056841F204142E590B4A324013432B5112
:100F08000A7F8B6943EAC273006841F208114458AA
:100F1800064A22401343435070BC7047FD87FFFFC9
:100F2800FE2FFFFF00C0FEFFEFEFC0FFFFFFC07FF7
:100F380070B5A2B0064601258DF8335000241294EE
:100F48008DF841408DF843408DF828508DF8565063
:100F58008DF832508DF84C408DF884504FF4005382
:100F68000F938DF85C4018948DF885408DF8864075
:100F78004FF4C36316938DF830400B948DF83550B9
:100F88008DF836408DF840401D941B9414948DF8CC
:100F980064408DF87A408DF84250202320938DF8D4
:100FA80044508DF855404FF0405309934FF4804317
:100FB8000E938DF8314002231F938DF878408DF8F9
:100FC80079408DF854408DF834501A948DF870504B
:100FD80009A9FFF789FE8DF80450029500948DF851
:100FE8001C408DF80D408DF80C404FF4001306930B
:100FF8008DF8144004938DF81D404FF40673089340
:1010080069463046FFF748FF22B070BD30B4002370
:101018000DE0C56803EB4302D4002A1900212951C9
:1010280051609160D160991D40F821200133032B54
:10103800EFD9002383620268032141F22C13D150B7
:101048000268C16841F21413D1500368C26803F5FD
:1010580089531A6030BC704730B4002111E005692B
:1010680001EB4103DC002B1900222A515A609A60D7
:10107800DA601A615A6101F1100200EB82025360D2
:1010880001310329EBD9002343658365C3654366B2
:1010980003660268032141F23013D15002680169E6
:1010A80041F21C13D15001680369483341F22812F8
:1010B8008B5030BC7047000038B505460368D3F83C
:1010C800004224F4706400F045FE114B0344114AB9
:1010D800934211D9104B0344104A934212D9104B32
:1010E8000344104A934209D90F4B03440F4A9342D1
:1010F8000BD944F4806401E044F400742B68C3F80D
:10110800004238BD44F44074F8E744F48074F5E7CD
:1011180000D3CEFEBFE1E40040F1E9FD3F787D0158
:1011280000796CFCFF596202001F0AFA7FF0FA028C
:10113800002800F08C8030B583B00446C36E8BB3B2
:101148002323E366434BD3F8F42042F00202C3F8AA
:10115800F420D3F8F43003F002030193019B237ABF
:101168001BBB002001F0A6FF236803F580531A6813
:1011780042F001021A6001F07DFF0546236803F57D
:1011880080531B6813F0010F14D001F073FF401B4C
:10119800B0F5FA7FF2D904236367E023E366012000
:1011A80003B030BDFFF704FCCAE74FF4000001F0BC
:1011B80081FFD9E72046FFF77FFF256800F0CAFDC9
:1011C800254BA3FB00239B0C013BC5F8DC302046D4
:1011D800FFF7AEFE226802F58852136823F4E01385
:1011E80043F400231360636913F0030F04D0012054
:1011F8006067E023E366D3E7206841F208114558A9
:10120800164A2A4042EA430343502046FFF7FEFEAF
:101218002046FFF721FF216862685079137943EA75
:101228000023C1F8003321686268D07893781B04E2
:1012380043EA0063507843EA002312781343C1F865
:101248000433002060671023E3662367A8E70120C2
:10125800704700BF0044025883DE1B430180FFFF34
:10126800002800F0248338B50446036813F0010F02
:1012780036D0A84A136903F03803926A102B26D097
:10128800182B20D06368B3F5803F50D0002B54D181
:10129800A04B1A6822F480321A601A6822F480225D
:1012A8001A606368002B5FD001F0E4FE0546994B95
:1012B8001B6813F4003F13D101F0DCFE401B6428C7
:1012C800F5D9032038BD02F00302022ADAD1914B86
:1012D8001B6813F4003F03D06368002B00F0E98219
:1012E800236813F0020F00F091808A4A1369926A0A
:1012F80013F038034AD0182B45D0E368002B00F0D0
:10130800CE8084490A6822F0190213430B6001F069
:10131800B1FE05467F4B1B6813F0040F40F09D801B
:1013280001F0A8FE401B0228F4D9032038BD794AF1
:10133800136843F480331360B3E7B3F5A02F09D0E3
:10134800744B1A6822F480321A601A6822F48022D8
:101358001A60A6E76F4B1A6842F480221A601A686E
:1013680042F480321A609CE701F084FE0546694B1E
:101378001B6813F4003FB3D001F07CFE401B6428C7
:10138800F5D9032038BD12F0030FB6D1614B1B68A5
:1013980013F0040F03D0E368002B00F08C825D4A41
:1013A800136823F01903E1680B43136001F062FE30
:1013B8000546584B1B6813F0040F06D101F05AFE7E
:1013C800401B0228F5D9032038BD01F06DFE41F21B
:1013D8000303984212D82269402A07D04D494B6826
:1013E80023F47C3343EA02334B600FE0494A5368E5
:1013F80023F47C3343F40033536007E0454A5368D1
:1014080023F0FE43216943EA01635360236813F024
:10141800100F00F089803F4A136903F03803926A7D
:10142800082B54D0182B4ED0E369002B00F0B9805C
:10143800384A136843F08003136001F01BFE054629
:10144800344B1B6813F4807F40F0898001F012FE52
:10145800401B0228F4D9032038BD01F025FE41F2D3
:101468000303984212D82269402A07D029494B68B9
:1014780023F47C3343EA02334B60C7E7254A5368B9
:1014880023F47C3343F400335360BFE7214A5368A5
:1014980023F0FE43216943EA01635360B6E71D4A1E
:1014A800136823F00103136001F0E4FD0546194BAE
:1014B8001B6813F0040FA9D001F0DCFD401B0228C3
:1014C800F5D9032038BD02F00302012AACD1114B33
:1014D8001B6813F4807F04D0E369802B01D00120BE
:1014E80038BD01F0E1FD41F20303984214D8226AA5
:1014F800202A07D007494B6823F0F84343EA826360
:101508004B6011E0034A536823F0F84343F08043EB
:10151800536009E0004402589A4AD36823F07C5388
:10152800216A43EA0163D360236813F0080F60D08F
:101538006369002B49D0934A536F43F00103536703
:1015480001F098FD05468F4B5B6F13F0020F50D1E9
:1015580001F090FD401B0228F5D9032038BD01F0A9
:10156800A3FD41F20303984212D8226A202A07D029
:1015780084494B6823F0F84343EA82634B60D3E71E
:10158800804A536823F0F84343F080435360CBE725
:101598007C4AD36823F07C53216A43EA0163D36011
:1015A800C2E7784A136823F08003136001F062FDF4
:1015B8000546744B1B6813F4807FB5D001F05AFDC3
:1015C800401B0228F5D9032038BD6E4A536F23F01B
:1015D8000103536701F04EFD05466A4B5B6F13F03C
:1015E800020F06D001F046FD401B0228F5D9032062
:1015F80038BD236813F0200F29D0A3699BB1614A35
:10160800136843F48053136001F034FD05465D4BC5
:101618001B6813F4005F1AD101F02CFD401B02284F
:10162800F5D9032038BD574A136823F48053136053
:1016380001F020FD0546534B1B6813F4005F06D0EC
:1016480001F018FD401B0228F5D9032038BD236896
:1016580013F0040F21D1636A002B00F02E81494A50
:10166800126902F03802182A00F0EE80022B75D0B9
:10167800444A136823F08073136001F0FBFC0446AE
:10168800404B1B6813F0007F00F0DC8001F0F2FC97
:10169800001B0228F4D9032038BD3B4A136843F4E1
:1016A8008073136001F0E6FC0546374B1B6813F4A2
:1016B800807F06D101F0DEFC401B6428F5D90320A9
:1016C80038BDA368012B1CD00BBB2E4B1A6F22F020
:1016D80001021A671A6F22F004021A67A36863B33B
:1016E80001F0C8FC0546274B1B6F13F0020FB2D15F
:1016F80001F0C0FC401B41F288339842F3D9032023
:1017080038BD204A136F43F001031367E6E7052B42
:1017180009D01C4B1A6F22F001021A671A6F22F0C7
:1017280004021A67DAE7174B1A6F42F004021A67C5
:101738001A6F42F001021A67D0E701F09BFC0546D8
:10174800104B1B6F13F0020F85D001F093FC401B68
:1017580041F288339842F3D9032038BD094A136807
:1017680023F08073136001F085FC0546054B1B6868
:1017780013F0007F0AD001F07DFC401B0228F5D948
:10178800032038BD00440258004802584E4B996A5D
:101798004E4A0A40A16AE06A41EA00110A439A6285
:1017A800226B013AC2F30802616B0139490289B21E
:1017B8000A43A16B0139090401F4FE010A43E16BF4
:1017C8000139090601F0FE410A431A63DA6A22F078
:1017D8000102DA62596B3E4A0A40A16C42EAC10230
:1017E8005A63DA6A22F00C02216C0A43DA62DA6A76
:1017F80022F00202616C0A43DA62DA6A42F4803249
:10180800DA62DA6A42F40032DA62DA6A42F4802290
:10181800DA62DA6A42F00102DA621A6842F0807229
:101828001A6001F027FC0446274B1B6813F0007F61
:1018380006D101F01FFC001B0228F5D9032038BD92
:10184800002038BD002038BD1F4A916A106B012B5B
:1018580035D001F00303A26A934201D0012038BDBC
:10186800C1F30511E36A994201D0012038BDC0F3E4
:101878000802236B013B9A4201D0012038BDC0F316
:101888004622636B013B9A4201D0012038BDC0F368
:101898000642A36B013B9A4201D0012038BDC0F338
:1018A8000660E36B013B98420BD0012038BD012054
:1018B8007047012038BD012038BD002038BD012007
:1018C80038BD002038BD00BF004402580CFCFFFFA3
:1018D8000700FFFF734B1B6903F03803102B00F060
:1018E800DF80182B11D00BB16F4870476D4B1B6808
:1018F80013F0200F01D16D4870476A4B1868C0F388
:10190800C1006A4B23FA00F0704710B4654A916A27
:1019180001F00301906AC0F30510D46A04F00104D1
:10192800536BC3F3CC0303FB04F307EE903AF8EED2
:10193800677A002800F09480012966D0F9B102295D
:1019480000F0918007EE100AF8EE476A9FED586A9A
:1019580086EE267A534B1B6BC3F3080306EE903AC8
:10196800F8EE666A9FED536A67EE867A76EEA77A96
:10197800F7EE006A77EEA67A27EE277A61E0494B00
:101988001B6813F0200F23D046490A68C2F3C1022E
:10199800464BD34007EE103AF8EE476A07EE100AB6
:1019A800B8EE476A86EE867A0B6BC3F3080306EE39
:1019B800903AF8EE666A9FED3F6A67EE867A76EEB1
:1019C800A77AF7EE006A77EEA67A27EE277A38E04C
:1019D80007EE100AF8EE476A9FED376A86EE267A18
:1019E800304B1B6BC3F3080306EE903AF8EE666AB9
:1019F8009FED306A67EE867A76EEA77AF7EE006A90
:101A080077EEA67A27EE277A1BE007EE100AF8EEA3
:101A1800476A9FED276A86EE267A224B1B6BC3F333
:101A2800080306EE903AF8EE666A9FED226A67EEC2
:101A3800867A76EEA77AF7EE006A77EEA67A27EE30
:101A4800277A184B1B6BC3F34623013307EE903AF2
:101A5800F8EE677AC7EE276AFCEEE67A17EE900A88
:101A68005DF8044B704707EE100AF8EE476A9FEDE1
:101A7800136A86EE267A0B4B1B6BC3F3080306EE3C
:101A8800903AF8EE666A9FED0B6A67EE867A76EE14
:101A9800A77AF7EE006A77EEA67A27EE277AD0E7DC
:101AA800074870470044025800093D000090D003E1
:101AB8000024744A000000390024744C0024F44ABD
:101AC80000127A00002800F0358170B504469B4B5F
:101AD8001B6803F00F038B420CD2984A136823F05B
:101AE8000F030B431360136803F00F03994201D0EF
:101AF800012070BD236813F0040F0CD02269904BAD
:101B08009B6903F070039A4205D98D48836923F0D5
:101B180070031A438261236813F0080F0CD06269BE
:101B2800874BDB6903F070039A4205D98448C3697F
:101B380023F070031A43C261236813F0100F0CD00E
:101B4800A2697F4BDB6903F4E0639A4205D97C48BC
:101B5800C36923F4E0631A43C261236813F0200FBA
:101B68000CD0E269764B1B6A03F070039A4205D9E0
:101B78007348036A23F070031A430262236813F060
:101B8800020F0CD0E2686E4B9B6903F00F039A4278
:101B980005D96B48836923F00F031A4382610D4608
:101BA800236813F0010F41D0654A936923F47063E9
:101BB800A1680B4393616368022B23D0032B27D0C2
:101BC800012B2CD05E4A126812F0040F00F0B4808A
:101BD8005B490A6922F0070213430B6101F04AFAD4
:101BE8000646574B1B6903F038036268B3EBC20F14
:101BF8001CD001F03FFA801B41F288339842F0D99B
:101C0800032070BD126812F4003FE1D1012070BDBD
:101C18004B4A126812F0007FDAD1012070BD484AA1
:101C2800126812F4807FD3D1012070BD236813F0AD
:101C3800020F0CD0E268424B9B6903F00F039A42F3
:101C480005D23F498B6923F00F031A438A613B4B46
:101C58001B6803F00F039D420CD2384A136823F027
:101C68000F032B431360136803F00F039D4201D049
:101C7800012070BD236813F0040F0CD02269304B8B
:101C88009B6903F070039A4205D22D498B6923F0B2
:101C980070031A438A61236813F0080F0CD0626935
:101CA800274BDB6903F070039A4205D22449CB69BC
:101CB80023F070031A43CA61236813F0100F0CD085
:101CC800A2691F4BDB6903F4E0639A4205D21C4901
:101CD800CB6923F4E0631A43CA61236813F0200F29
:101CE8000CD0E269164B1B6A03F070039A4205D2C6
:101CF80013490B6A23F070031A430A62FFF7EAFDDF
:101D08000F498B69C3F303230E4AD35C03F01F0307
:101D1800D8408B6903F00F03D35C03F01F0320FA4C
:101D280003F3094A1360094B1860094B186801F05E
:101D38003FF970BD01207047012070BD002000529E
:101D480000440258544100080C00002008000020FC
:101D58000400002008B5FFF7BDFD0B4A9369C3F3E3
:101D680003230A49CB5C03F01F0320FA03F39269AB
:101D780002F00F02885C00F01F0023FA00F0044A0A
:101D88001060044A136008BD00440258544100081A
:101D98000C0000200800002008B5FFF7DBFF054B0A
:101DA800DB69C3F30213044AD35C03F01F03D84072
:101DB80008BD00BF004402585441000808B5FFF7A9
:101DC800C9FF054BDB69C3F30223044AD35C03F064
:101DD8001F03D84008BD00BF004402585441000802
:101DE800404B9B6A03F00303032B79D070B50E4672
:101DF80005463C4A136823F08063136001F03AF902
:101E08000446384B1B6813F0006F06D001F032F916
:101E1800001B0228F5D9032070BD324B9A6A22F4C0
:101E28007C32296842EA01329A626A68013AC2F34E
:101E38000802A9680139490289B20A43E9680139E7
:101E4800090401F4FE010A4329690139090601F070
:101E5800FE410A439A63DA6A22F0C00269690A43BA
:101E6800DA62DA6A22F02002A9690A43DA62DA6AD7
:101E780022F01002DA62D96B1B4A0A40E96942EA89
:101E8800C102DA63DA6A42F01002DA62C6B91A46A7
:101E9800DB6A43F40023D362124A136843F0806379
:101EA800136001F0E7F804460E4B1B6813F0006F4F
:101EB80014D101F0DFF8001B0228F5D9032070BD0A
:101EC800012E05D0074AD36A43F40013D362E3E72F
:101ED800044AD36A43F48013D362DDE7002070BD5F
:101EE80001207047004402580700FFFF404B9B6ADF
:101EF80003F00303032B79D070B50E4605463C4A20
:101F0800136823F08053136001F0B4F80446384B8B
:101F18001B6813F0005F06D001F0ACF8001B022824
:101F2800F5D9032070BD324B9A6A22F07C72296879
:101F380042EA01529A626A68013AC2F30802A96841
:101F48000139490289B20A43E9680139090401F4EF
:101F5800FE010A4329690139090601F0FE410A43D5
:101F68001A64DA6A22F4406269690A43DA62DA6A50
:101F780022F40072A9690A43DA62DA6A22F48072EA
:101F8800DA62596C1B4A0A40E96942EAC1025A649A
:101F9800DA6A42F48072DA62C6B91A46DB6A43F436
:101FA8008003D362124A136843F08053136001F030
:101FB80061F804460E4B1B6813F0005F14D101F062
:101FC80059F8001B0228F5D9032070BD012E05D051
:101FD800074AD36A43F08073D362E3E7044AD36ABB
:101FE80043F40003D362DDE7002070BD0120704791
:101FF800004402580700FFFFF8B50446036813F0D1
:10200800006F2BD0436EB3F5801F19D010D9B3F5EC
:10201800001F1BD0B3F5401F1ED1002565BB9B4A8E
:10202800136D23F44013616E0B4313652E4617E0BE
:1020380093B9964AD36A43F40033D3620025EDE797
:1020480002210430FFF7CCFE0546E7E702212430E1
:10205800FFF74CFF0546E1E70125DFE70026354697
:10206800236813F4807F27D0636D042B21D8DFE821
:1020780003F00513190A0A002E46F1E7834AD36ACA
:1020880043F40033D362B5B9804A136D23F00703D4
:10209800616D0B4313650FE00021201DFFF7A0FEC3
:1020A8000546F0E7002104F12400FFF71FFF05466D
:1020B800E9E70125E7E72E46236813F4007F29D0D6
:1020C800A36D802B1ED008D873B1402B0AD10021F4
:1020D800201DFFF785FE05460BE0C02B09D0B3F5A0
:1020E800807F06D0012504E0684AD36A43F40033B0
:1020F800D36275B9654A136D23F4E073A16D0B4380
:10210800136507E0002104F12400FFF7EFFE054600
:10211800EFE72E46236813F4806F2ED0D4F8A4304E
:10212800B3F5800F21D009D883B1B3F5001F0BD1C7
:102138000021201DFFF754FE05460CE0B3F5C00F43
:1021480009D0B3F5000F06D0012504E04F4AD36A41
:1021580043F40033D3627DB94C4A936D23F4600392
:10216800D4F8A4100B43936507E0002104F1240080
:10217800FFF7BCFE0546EEE72E46236813F4006F12
:102188002ED0D4F8A830B3F1007F21D009D883B17C
:10219800B3F1807F0BD10021201DFFF721FE0546FA
:1021A8000CE0B3F1407F09D0B3F1806F06D0012570
:1021B80004E0364AD36A43F40033D3627DB9334A24
:1021C800936D23F0E063D4F8A8100B43936507E000
:1021D800002104F12400FFF789FE0546EEE72E46AC
:1021E800236813F0007F20D0A36C102B08D004D9EB
:1021F800202B13D0302B08D000E033B1012504E0A8
:10220800224AD36A43F40033D3626DB91F4AD36CB0
:1022180023F03003A16C0B43D36406E00221201D98
:10222800FFF7DEFD0546F0E72E46236813F4805FCE
:102238002FD0E36DB3F5005F20D009D883B1B3F593
:10224800805F0BD10021201DFFF7CAFD05460CE079
:10225800B3F5405F09D0B3F5804F06D0012504E0FF
:102268000A4AD36A43F40033D3628DB9074A136D1F
:1022780023F4E043E16D0B4313650AE0002104F108
:102288002400FFF733FE0546EFE700BF004402587D
:102298002E46236813F4005F29D0236EB3F5003F60
:1022A8001DD011D83BB1B3F5803F16D10121201DB7
:1022B800FFF796FD0546CDB9974A136D23F4E02341
:1022C800216E0B43136512E0B3F5802FF3D0B3F5FD
:1022D800A02FF0D0B3F5403FEDD00125EBE7012169
:1022E80004F12400FFF702FE0546E4E72E462368C2
:1022F80013F4804F2BD0D4F8AC30B3F1005F1ED06C
:1023080012D83BB1B3F1805F17D10121201DFFF72F
:1023180067FD0546D5B9804A936D23F0E043D4F8AC
:10232800AC100B43936512E0B3F1804FF2D0B3F1D8
:10233800A04FEFD0B3F1405FECD00125EAE70121CF
:1023480004F12400FFF7D2FD0546E3E72E46236893
:1023580013F4004F1ED0E36EB3F1805F05D0B3F1E4
:10236800005F10D033B1012504E06B4AD36A43F40F
:102378000033D3626DB9684A136D23F04053E16EA0
:102388000B43136506E00121201DFFF729FD0546D3
:10239800F0E72E46236813F0807F1DD0636C032B73
:1023A80017D8DFE803F0070210075B4AD36A43F443
:1023B8000033D3627DB9584AD36C23F00303616CB0
:1023C8000B43D36408E00221201DFFF709FD0546F1
:1023D800F0E70125EEE72E46236813F4800F1FD19E
:1023E800236813F0010F00F09E80A36F282B00F2E2
:1023F8009080DFE803F07E8E8E8E8E8E8E8E798EA4
:102408008E8E8E8E8E8E878E8E8E8E8E8E8E7E8EFB
:102418008E8E8E8E8E8E7E8E8E8E8E8E8E8E7E0082
:102428003E4A136843F48073136000F023FE0746A6
:102438003A4B1B6813F4807F05D100F01BFEC01BCC
:102448006428F5D90325002D4AD1334B1B6FD4F8E6
:10245800B020534013F4407F0CD02F4B1A6F22F456
:102468004072196F41F480311967196F21F4803176
:1024780019671A67D4F8B030B3F5807F15D08DBBD3
:10248800D4F8B03003F44072B2F5407F1ED0224A2F
:10249800136923F47C5313611F490B6FD4F8B020E0
:1024A800C2F30B0213430B679AE700F0E3FD0746FC
:1024B800194B1B6F13F0020FE1D100F0DBFDC01BBD
:1024C80041F288339842F3D90325D8E712480269C4
:1024D80022F47C52124901EA131313430361DBE728
:1024E8002E467DE72E467BE70121201DFFF778FC6D
:1024F8000546BDB9084A536D23F03803A16F0B4355
:10250800536510E0012104F12400FFF7EFFC0546B4
:10251800EFE70125EDE700BF0044025800480258E4
:10252800CFFFFF002E46236813F0020F1FD0636F02
:10253800052B19D8DFE803F0080311080808012162
:10254800201DFFF74DFC054685B9AA4A536D23F0B7
:102558000703616F0B43536509E0012104F124006F
:10256800FFF7C4FC0546EFE70125EDE72E46236893
:1025780013F0040F21D0D4F89030052B1AD8DFE8D7
:1025880003F00803120808080121201DFFF728FCA2
:1025980005468DB9974A936D23F00703D4F8901038
:1025A8000B43936509E0012104F12400FFF79EFC29
:1025B8000546EEE70125ECE72E46236813F0200FC9
:1025C8002BD0D4F88C30B3F1005F1ED012D83BB1B9
:1025D800B3F1805F17D10021201DFFF701FC0546EC
:1025E800D5B9844A536D23F0E043D4F88C100B43DB
:1025F800536512E0B3F1804FF2D0B3F1A04FEFD0A2
:10260800B3F1405FECD00125EAE7022104F1240090
:10261800FFF76CFC0546E3E72E46236813F0400FEE
:102628002BD0D4F89830B3F5006F1ED012D83BB138
:10263800B3F5806F17D10021201DFFF7D1FB0546A8
:10264800D5B96C4A936D23F4E053D4F898100B4332
:10265800936512E0B3F5805FF2D0B3F5A05FEFD0D9
:10266800B3F5406FECD00125EAE7022104F124001C
:10267800FFF73CFC0546E3E72E46236813F0800F7E
:102688002BD0D4F89C30B3F5804F1ED012D83BB174
:10269800B3F5005F17D10021201DFFF7A1FB054608
:1026A800D5B9544A936D23F46043D4F89C100B4376
:1026B800936512E0B3F5004FF2D0B3F5204FEFD099
:1026C800B3F5C04FECD00125EAE7022104F124005C
:1026D800FFF70CFC0546E3E72E46236813F0080FC6
:1026E8000CD0D4F88030B3F5805F27D0414A536DC1
:1026F80023F44053D4F880100B435365236813F038
:10270800100F0CD0D4F89430B3F5807F1FD0394A1D
:10271800936D23F44073D4F894100B4393652368A6
:1027280013F4002F33D0D4F8A030B3F5803F26D06F
:10273800B3F5003F19D09BB1012516E0022104F141
:102748002400FFF7D3FB0028D0D00126CEE70221D2
:1027580004F12400FFF7CAFB0028D8D00126D6E7E9
:102768000021201DFFF73CFB05467DB9214A936DEA
:1027780023F44033D4F8A0100B43936507E00221FB
:1027880004F12400FFF7B2FB0546EEE72E46236866
:1027980013F4802F23D0D4F88430B3F5001F16D05B
:1027A800B3F5401F09D0B3F5801F01D0012504E01F
:1027B800104AD36A43F40033D3627DB90D4A536D8E
:1027C80023F44013D4F884100B43536507E0012128
:1027D80004F12400FFF78AFB0546EEE72E4623683E
:1027E80013F4803F1DD0E36C33B1B3F5803F11D0B3
:1027F800012506E000440258474AD36A43F40033EF
:10280800D3626DB9444AD36C23F48033E16C0B4333
:10281800D36406E00221201DFFF7E2FA0546F0E73F
:102828002E46236813F0005F0FD1236813F4003F8E
:1028380026D0E36FB3F5807F13D00FD9B3F5007FAF
:1028480014D0B3F5407F0AD110E0022104F124002E
:10285800FFF74CFB0028E8D00126E6E733B1012555
:1028680004E02D4AD36A43F40033D3623DB92A4ABF
:10287800536D23F44073E16F0B43536500E02E461C
:10288800236813F4801F06D0234A136D23F00043F6
:10289800216F0B431365236813F0805F07D01E4A2E
:1028A800136923F48043D4F8B4100B4313612368ED
:1028B80013F4001F06D0184A136D23F08073A16E1D
:1028C8000B431365236813F0804F09D0124B1A6924
:1028D80022F400421A611A69D4F8B8100A431A613E
:1028E8002368002B0FDB236813F4000F07D00A4A74
:1028F800536D23F44003D4F888100B43536506B195
:1029080001263046F8BD044AD36C23F04053216DAC
:102918000B43D364E7E700BF0044025808B5FFF74C
:1029280019FA054B1B6AC3F30213044AD35C03F07C
:102938001F03D84008BD00BF004402585441000896
:1029480030B477498C6A8A6AC2F30532CD6AC5F316
:102958000015CB6BC3F3CC0303FB05F3002A00F08F
:10296800DA8004F0030407EE903AF8EE677A012C57
:1029780066D0FCB1022C00F0B18007EE102AB8EE48
:10298800477A9FED686AC6EE076A654B9B6BC3F38F
:10299800080307EE103AB8EE477A9FED636A67EED0
:1029A800867A77EE277AB7EE007A77EE877A66EE40
:1029B800A76A61E05A4B1B6813F0200F23D0584CCC
:1029C8002168C1F3C101594BCB4007EE103AB8EE6C
:1029D800477A06EE902AB8EE666AC7EE066AA36BD7
:1029E800C3F3080307EE103AB8EE477A9FED4E6A34
:1029F80067EE867A77EE277AB7EE007A77EE877AEF
:102A080066EEA76A38E007EE102AB8EE477A9FED1F
:102A1800486AC6EE076A424B9B6BC3F3080307EE8E
:102A2800103AB8EE477A9FED406A67EE867A77EEFD
:102A3800277AB7EE007A77EE877A66EEA76A1BE008
:102A480007EE102AB8EE477A9FED366AC6EE076A97
:102A5800334B9B6BC3F3080307EE103AB8EE477A83
:102A68009FED316A67EE867A77EE277AB7EE007ABD
:102A780077EE877A66EEA76A294A936BC3F34623F3
:102A880007EE103AB8EE477AB7EE006A37EE067AE4
:102A9800C6EE877AFCEEE77AC0ED007A936BC3F353
:102AA800064307EE103AB8EE477A37EE067AC6EED6
:102AB800877AFCEEE77AC0ED017A936BC3F306637D
:102AC80007EE903AF8EE677A77EE867A86EEA77A7E
:102AD800BCEEC77A80ED027A30BC704707EE102A48
:102AE800B8EE477A9FED136AC6EE076A0C4B9B6BEC
:102AF800C3F3080307EE103AB8EE477A9FED0A6A67
:102B080067EE867A77EE277AB7EE007A77EE877ADD
:102B180066EEA76AB0E70023036043608360DBE7E3
:102B2800004402580024744A000000390090D00381
:102B38000024744C0024F44A30B477498C6A8A6AB9
:102B4800C2F30552CD6AC5F300254B6CC3F3CC0321
:102B580003FB05F3002A00F0DA8004F0030407EE13
:102B6800903AF8EE677A012C66D0FCB1022C00F09E
:102B7800B18007EE102AB8EE477A9FED686AC6EE74
:102B8800076A654B1B6CC3F3080307EE103AB8EEEF
:102B9800477A9FED636A67EE867A77EE277AB7EE13
:102BA800007A77EE877A66EEA76A61E05A4B1B686F
:102BB80013F0200F23D0584C2168C1F3C101594BA1
:102BC800CB4007EE103AB8EE477A06EE902AB8EEF8
:102BD800666AC7EE066A236CC3F3080307EE103A69
:102BE800B8EE477A9FED4E6A67EE867A77EE277AD7
:102BF800B7EE007A77EE877A66EEA76A38E007EED6
:102C0800102AB8EE477A9FED486AC6EE076A424B2B
:102C18001B6CC3F3080307EE103AB8EE477A9FED32
:102C2800406A67EE867A77EE277AB7EE007A77EE13
:102C3800877A66EEA76A1BE007EE102AB8EE477A95
:102C48009FED366AC6EE076A334B1B6CC3F3080365
:102C580007EE103AB8EE477A9FED316A67EE867A4A
:102C680077EE277AB7EE007A77EE877A66EEA76A6C
:102C7800294A136CC3F3462307EE103AB8EE477A95
:102C8800B7EE006A37EE067AC6EE877AFCEEE77A88
:102C9800C0ED007A136CC3F3064307EE103AB8EEA2
:102CA800477A37EE067AC6EE877AFCEEE77AC0ED09
:102CB800017A136CC3F3066307EE903AF8EE677A6D
:102CC80077EE867A86EEA77ABCEEC77A80ED027A2E
:102CD80030BC704707EE102AB8EE477A9FED136AAA
:102CE800C6EE076A0C4B1B6CC3F3080307EE103AD9
:102CF800B8EE477A9FED0A6A67EE867A77EE277A0A
:102D0800B7EE007A77EE877A66EEA76AB0E7002317
:102D1800036043608360DBE7004402580024744A80
:102D2800000000390090D0030024744C0024F44AB9
:102D3800F0B583B0002364E085684FEA430E0327AB
:102D480007FA0EF725EA0705CE6806FA0EF63543A8
:102D58008560456825EA04044D68C5F300159D4063
:102D68002C4344605CE0DD08083550F8254003F04A
:102D78000706B6000F27B74024EA07040F6907FAC9
:102D880006F6344340F825405EE0092600E00026B8
:102D980006FA0EF6354302345F4E46F824504FF0DB
:102DA800B0442568D44305EA04064F6817F4801F29
:102DB80001D042EA05064FF0B0452E606E6804EA7D
:102DC80006054F6817F4001F01D042EA06054FF0C8
:102DD800B0467560514D6D6804EA05064F6817F4F2
:102DE800003F01D042EA05064C4D6E602D682C402C
:102DF8004E6816F4803F01D042EA0504474A146041
:102E080001330A6832FA03F400F0838001249C40FD
:102E18002240F5D04D6805F00305013D012D8BD901
:102E28004C6804F00304032C09D0C4685F0003262F
:102E3800BE4024EA06048D68BD402C43C4604C683B
:102E480004F00304022C8ED004685F000326BE4001
:102E580024EA06044D6805F00305BD402C430460D0
:102E68004C6814F4403FCBD02D4CD4F8F45045F0C6
:102E78000205C4F8F450D4F8F44004F002040194B4
:102E8800019C9C08A61C244D55F8265003F0030607
:102E98004FEA860E0F2606FA0EF625EA0605214F9A
:102EA800B8423FF474AF204EB04222D006F5806697
:102EB800B04220D006F58066B0421ED006F5806686
:102EC800B0421CD006F58066B0421AD006F580667E
:102ED800B04218D006F58066B04216D006F5806676
:102EE800B04214D006F58066B0423FF44EAF0A26D1
:102EF8004EE701264CE702264AE7032648E7042660
:102F080046E7052644E7062642E7072640E708265F
:102F18003EE703B0F0BD00BF000400588000005831
:102F280000440258000002580004025812B909046B
:102F38008161704781617047436903EA010221EAB0
:102F4800030141EA0241816170470000134BDB68CD
:102F580013F0040F07D1114BDB6803F0070383421A
:102F68001AD00120704710B50C4AD36823F0070324
:102F78001843D06000F07EF80446084B5B6813F4F1
:102F8800005F07D100F076F8001BB0F57A7FF4D91E
:102F9800012010BD002010BD0020704700480258D5
:102FA800024AD36843F08073D360704700480258E0
:102FB800104B1B780BB90120704710B504464FF42D
:102FC8007A70B0FBF3F30C4A1068B0FBF3F0FDF72E
:102FD80075FE68B90F2C01D9012010BD00222146C9
:102FE8004FF0FF30FDF73AFE044B1C60002010BD87
:102FF800012010BD0000002008000020040000206F
:1030080010B50320FDF718FEFEF764FC0F498B6925
:10301800C3F303230E4AD35C03F01F03D8408B6924
:1030280003F00F03D35C03F01F0320FA03F3094AEC
:103038001360094B18600020FFF7BAFF10B1012494
:10304800204610BD0446FDF7A1FCF9E700440258EC
:10305800544100080C00002008000020034B1B7896
:10306800034A11680B441360704700BF000000203A
:1030780040060020014B1868704700BF400600203A
:1030880038B50446FFF7F6FF0546B4F1FF3F02D016
:10309800044B1B781C44FFF7EDFF401B8442FAD811
:1030A80038BD00BF00000020014B1868000C7047B5
:1030B8000010005C034A536823F46003184350600F
:1030C800704700BF000400582DE9F04387B004465C
:1030D800016883680269134342691343C269134351
:1030E80008688B4A024013430B602268536823F434
:1030F8004053E1680B435360A369226885498A42BB
:1031080001D0216A0B439068834901400B439360C7
:103118002268D36A23F00F03616A0B43D3622368E2
:103128007E4A93426FD07E4A934200F0A9807D4A3E
:10313800934200F0BF807C4A934200F0D2807B4AE1
:10314800934200F0FD807A4A934200F01081794A58
:10315800934200F03581784A934200F048816D4AE5
:10316800934200F05B8180226A498B4200F08081A3
:10317800E369B3F5004F00F0EF81402A00F27F8247
:10318800DFE812F05C0260027D027D0264027D02CB
:103198007D027D026A027D027D027D027D027D0242
:1031A8007D027D0270027D027D027D027D027D022C
:1031B8007D027D027D027D027D027D027D027D020F
:1031C8007D027D0259027D027D027D027D027D0223
:1031D8007D027D027D027D027D027D027D027D02EF
:1031E8007D027D027D027D027D027D027D027D02DF
:1031F8007D027D027D027D027D027D027D027D02CF
:103208007D027D0280024D4A526D02F03802282A62
:1032180034D8DFE812F029003300330033003300DC
:103228003300330033001B01330033003300330015
:103238003300330033002B003300330033003300F6
:103248003300330033002D003300330033003300E4
:103258003300330033002F003300330033003300D2
:10326800330033003300310001227DE708227BE779
:10327800102279E7202277E7402275E7802273E75A
:103288002E4A526D02F00702052A11D8DFE812F023
:103298000600E00008000A000C000E00002263E7A8
:1032A800082261E710225FE720225DE740225BE702
:1032B800802259E7214A526D02F00702052A0ED8EA
:1032C800DFE802F003C80507090B00224CE70822D3
:1032D8004AE7102248E7202246E7402244E78022B6
:1032E80042E7164A526D02F00702052A0ED8DFE8B7
:1032F80002F003B30507090B002235E7082233E77C
:10330800102231E720222FE740222DE780222BE7E9
:10331800F369FFCF000C0058FFF4FF1100100140C3
:103328000044004000480040004C0040005000406D
:103338000014014000780040007C0040004402581E
:10334800804A526D02F00702052A0ED8DFE802F023
:1033580003860507090B002206E7082204E7102266
:1033680002E7202200E74022FEE68022FCE6754ABA
:10337800526D02F03802282A20D8DFE802F0151F23
:103388001F1F1F1F1F1F711F1F1F1F1F1F1F171FFB
:103398001F1F1F1F1F1F191F1F1F1F1F1F1F1B1F3F
:1033A8001F1F1F1F1F1F1D000122DDE60822DBE66D
:1033B8001022D9E62022D7E64022D5E68022D3E69D
:1033C800604A526D02F00702052A0ED8DFE802F0C3
:1033D800034A0507090B0022C6E60822C4E61022A4
:1033E800C2E62022C0E64022BEE68022BCE6554A5C
:1033F800526D02F00702052A0ED8DFE802F0033505
:103408000507090B0022AFE60822ADE61022ABE65D
:103418002022A9E64022A7E68022A5E602F50E3280
:10342800926D02F00702052A0ED8DFE802F0031FAA
:103438000507090B022297E6082295E6102293E673
:10344800202291E640228FE680228DE604228BE638
:10345800042289E6042287E6042285E6042283E61C
:10346800042281E604227FE604227DE604227BE62C
:10347800082A4CD008D9202A10D0402A5AD0102A1D
:103488004BD0002001250BE0022A3CD0042AF8D1B9
:1034980003A8FFF755FA0498002501E02A480025FB
:1034A800002800F00781626A284B33F81220B0FB2D
:1034B800F2F3666806EB46018B42C0F00A81B3EB73
:1034C800063F00F20881002792B200233946FCF734
:1034D80015FF4FEA012949EA10694FEA00287008E8
:1034E80032463B4618EB000649F10007304639469C
:1034F800FCF704FFA0F54072154B9A4200F2ED80EC
:103508002368D860D6E0FFF709FA0025C8E76846BF
:10351800FFF712FB01980025C2E70A4B1B6813F05E
:10352800200F0BD0074B1B68C3F3C1030948D840D1
:103538000025B5E74FF400400025B1E70548002510
:10354800AEE700BF0044025800093D002C410008C6
:10355800FFFC0F000090D003402A46D8DFE802F0B5
:10356800242845452C45454532454545454545456D
:103578003845454545454545454545454545454500
:103588002145454545454545454545454545454507
:1035980045454545454545454545454545454545D3
:1035A80048005148002526E0FEF7F6FB002522E0FA
:1035B800FEF704FC00251EE003A8FFF7C1F90498F4
:1035C800002518E06846FFF7B7FA0198002512E0D1
:1035D800464B1B6813F0200F2AD0444B1B68C3F3DB
:1035E800C1034348D840002505E00020012502E03A
:1035F8004FF40040002500285CD0626A3D4B33F848
:103608001230B0FBF3F06268530803EB4003B3FBDE
:10361800F2F3A3F110014FF6EF7291425FD89AB21C
:1036280022F00F02C3F3420313432268D36041E040
:103638002F480025DFE72C48002526E0FEF7ACFBE5
:10364800002522E0FEF7BAFB00251EE003A8FFF7DD
:1036580077F90498002518E06846FFF76DFA019895
:10366800002512E0214B1B6813F0200F2ED01F4BB2
:103678001B68C3F3C1031E48D840002505E000209D
:10368800012502E04FF40040002598B1626A194B09
:1036980033F81230B0FBF3F0636800EB5300B0FB73
:1036A800F3F0A0F110024FF6EF739A4219D823688D
:1036B80080B2D8600123A4F86A30A4F868300023E7
:1036C80023676367284607B0BDE8F08308480025EC
:1036D800DBE70125EEE70125ECE70125EAE701250F
:1036E800E8E70125E6E700BF00093D00004402586D
:1036F8000090D0032C410008836A13F0010F06D014
:103708000268536823F40033C16A0B435360836A29
:1037180013F0020F06D00268536823F48033016B5C
:103728000B435360836A13F0040F06D00268536892
:1037380023F48023416B0B435360836A13F0080F13
:1037480006D00268536823F40043816B0B4353602F
:10375800836A13F0100F06D00268936823F480532D
:10376800C16B0B439360836A13F0200F06D0026885
:10377800936823F40053016C0B439360836A13F03E
:10378800400F0AD00268536823F48013416C0B433E
:103798005360436CB3F5801F0BD0836A13F0800F1E
:1037A80006D00268536823F40023C16C0B435360AE
:1037B80070470268536823F4C003816C0B4353605D
:1037C800EBE72DE9F04104460F4616469846069D5C
:1037D8002368DB6937EA03030CBF01230023B342E4
:1037E80057D1B5F1FF3FF3D0FFF744FCA0EB080039
:1037F80085422ED36DB323681A6812F0040FE7D000
:10380800DA6912F4006FE3D04FF400621A6222689A
:1038180052E8003F23F4D07342E800310029F6D182
:10382800226802F1080353E8003F23F0010308323D
:1038380042E800310029F3D12023C4F88430C4F8C9
:103848008830C4F88C30002384F880300320BDE829
:10385800F081226852E8003F23F4D07342E8003137
:103868000029F6D1226802F1080353E8003F23F04B
:103878000103083242E800310029F3D12023C4F8BB
:103888008430C4F88830002384F880300320BDE8F1
:10389800F0810020BDE8F08130B583B004460023F4
:1038A800C0F88C30FFF7E6FB054623681B6813F069
:1038B800080F0FD123681B6813F0040F18D12023B9
:1038C800C4F88430C4F888300020E06684F88000AA
:1038D80003B030BD6FF07E430093034600224FF4DF
:1038E80000112046FFF76DFF0028E3D00320EFE723
:1038F8006FF07E4300932B4600224FF48001204650
:10390800FFF75FFF0028DAD00320E1E778B310B5AE
:103918000446D0F884300BB32423C4F884302268DA
:10392800136823F0010313602046FFF7CDFB01283D
:103938001FD0A36ABBB92268536823F4904353602D
:103948002268936823F02A0393602268136843F07F
:10395800010313602046FFF79FFF10BD80F88030F9
:10396800FDF7C2F8D8E72046FFF7C6FEE3E70120D7
:10397800704710BD436EC3B130B403689A68C2F390
:1039880042629968490F0C4D6B5C1B010B4C615CE2
:1039980093FBF1F3A0F86A30AB5C1B01A25C93FBCC
:1039A800F2F3A0F8683030BC70470123A0F86A3001
:1039B800A0F86830704700BF4C4100084441000837
:1039C80090F88030012B18D0012380F88030242310
:1039D800C0F8843003681A68196821F00101196079
:1039E80022F000520023436601680A602022C0F8D2
:1039F800842080F88030184670470220704738B518
:103A080090F88030012B01D1022038BD04460123F3
:103A180080F880302423C0F8843003681D681A6851
:103A280022F001021A600268936823F06043194388
:103A38009160FFF79FFF23681D602023C4F884303E
:103A4800002084F8800038BD38B590F88030012B0C
:103A580001D1022038BD0446012380F88030242398
:103A6800C0F8843003681D681A6822F001021A60E1
:103A78000268936823F0606319439160FFF77AFF47
:103A880023681D602023C4F88430002084F8800057
:103A980038BDF0B58BB0002800F091800446056869
:103AA80090F8BD3323B3032384F8BD33EB6B13F4D1
:103AB800807F01D100232361206800F00BF925469F
:103AC80055F8107B6E460FCD0FC60FCD0FC695E883
:103AD800030086E80300231D0ECB384600F0ACF83F
:103AE80058B1022384F8BD33012528460BB0F0BD38
:103AF80080F8BC33FDF744F8D5E70021206800F0D2
:103B080017FA002315E0D900C81A820022440120C0
:103B180082F83D0082F83C30A2F84230002082F85A
:103B28003F0050649064CA1A91002144086501332B
:103B3800DBB26568AB42E6D3002315E0D800C11AB2
:103B48008A002244002182F8FD1182F8FC3182F8B3
:103B5800FF11C2F80412C2F80812C21A90002044D9
:103B6800C0F810120133DBB29D42E7D8254655F85C
:103B7800107B6E460FCD0FC60FCD0FC695E803001C
:103B880086E80300231D0ECB384600F0FBF80546F7
:103B980060B9002384F83830012384F8BD33636AA0
:103BA800012B08D0206800F0B1F99EE7022384F8C1
:103BB800BD33012599E7204600F004F8F2E7012516
:103BC80093E70000024603680121C0F8FC130020B7
:103BD80082F8F4039A6942F000629A61596D024AC8
:103BE8000A435A65704700BF0300001082B00023E3
:103BF8000193019B013301930E4A934214D8036940
:103C0800002BF6DA00230193036943F001030361F3
:103C1800019B01330193074A934208D8036913F0C3
:103C2800010FF5D1002000E0032002B07047032007
:103C3800FBE700BF400D030084B010B5044603A89D
:103C480080E80E00089B012B0DD0E36843F0400389
:103C5800E3602046FFF7CAFF0C9B13BBA36B43F43A
:103C68008033A36311E0A36B23F48033A363E2687A
:103C7800164B1340E360E36823F44013E3600F9BA3
:103C8800012B09D02046FFF7B1FF069B012B0DD071
:103C9800BDE8104004B07047E36843F48013E36064
:103CA800F0E7A36B23F48033A363EEE7E36D9BB2E5
:103CB800E365E26D064B1343E365A36843F006032F
:103CC800A360A36843F02003A360E1E7BFFFBDFF43
:103CD8000000EE03836823F001038360002070472F
:103CE80082B000230193019B013301930E4A934252
:103CF80014D80369002BF6DA00230193890141F0F7
:103D080020010161019B01330193074A934208D8BE
:103D1800036913F0200FF5D1002000E0032002B062
:103D280070470320FBE700BF400D030082B000236B
:103D38000193019B013301930D4A934212D8036901
:103D4800002BF6DA0023019310230361019B013352
:103D58000193074A934208D8036913F0100FF5D16D
:103D6800002000E0032002B070470320FBE700BFFB
:103D7800400D0300D0F800381943C0F8001800209F
:103D88007047000084B02DE9F041044607A880E898
:103D98000E002546002306E003F1400204EB8202F0
:103DA8000021516001330E2BF6D9119BA3BBD4F827
:103DB800043843F00203C4F80438A36B23F4001357
:103DC800A363236843F040032360236843F0800320
:103DD80023600023C4F8003E04F50066D4F80038D8
:103DE800C4F800380C9B012B1BD003212046FFF799
:103DF800C1FF10212046FFF773FF804608B14FF03E
:103E080001082046FFF792FF08B14FF00108002390
:103E180033617361F3611BE0A36B43F40013A36385
:103E2800D7E7099B23B900212046FFF7A3FFE0E766
:103E380001212046FFF79EFFDBE7C3B94FF0006082
:103E4800C2F8000900220A614FF67F328A60013306
:103E580007998B4210D205EB431202F51061D2F894
:103E680000090028E9DB0020C2F80009EAE74FF062
:103E78009040C2F80009E5E700230AE0BBB14FF023
:103E88009047C2F8007B002202614FF67F328260C1
:103E980001338B4210D205EB431202F53060D2F8A1
:103EA800007B002FEADB0027C2F8007BEBE74FF02E
:103EB8000067C2F8007BE6E7336923F48073336157
:103EC8000023A3616FF0804363610A9B1BB9A36958
:103ED80043F01003A361A2690A4B1343A3610D9B2E
:103EE8001BB1A36943F00803A361119B012B04D004
:103EF8004046BDE8F04104B07047A269024B134345
:103F0800A361F5E700383C8004000040D0F8003E8B
:103F180023F00303C0F8003ED0F8043843F002034E
:103F2800C0F8043800207047406900F0010070476D
:103F380038B50546C36823F0C043C360012913D0D0
:103F480029BBC36843F08043C36000240120FFF706
:103F580097F801342846FFF7E7FF08B1312CF5D967
:103F6800322C12D0002038BDC36843F00053C36020
:103F780000240120FFF784F801342846FFF7D4FF16
:103F88000128EDD0312CF4D9EAE7012038BD012011
:103F980038BD0000274AD2F8883043F47003C2F8CD
:103FA8008830254B1B6803F00F03062B06D8224ADE
:103FB800136823F00F0343F0070313601F4B1A68BD
:103FC80042F001021A6000221A6119681C4A0A406C
:103FD8001A60194B1B6803F00F03072B06D9164A02
:103FE800136823F00F0343F007031360134B0022F9
:103FF8009A61DA611A62134999621349D9621349BD
:1040080019635A639963DA6319645A64196821F465
:10401800802119601A660E4B1A680E4B1340B3F1D3
:10402800005F02D201220C4B1A6043F2D2020B4B02
:104038001A60704700ED00E000200052004402586A
:104048007FEDF6EA000202020000FF018002010192
:104058000010005C0000FFFF088100510040005282
:10406800DFF834D0FFF796FF0C480D490D4A0023BE
:1040780002E0D458C4500433C4188C42F9D30A4A15
:104088000A4C002301E013600432A242FBD300F083
:1040980011F8FCF757FC70470000022000000020D0
:1040A8001000002074410008D000002044060020C1
:1040B800FEE7000070B50D4E0D4CA41BA4100025A2
:1040C800A54209D10B4E0C4C00F020F8A41BA410FB
:1040D8000025A54205D170BD56F825309847013511
:1040E800EEE756F8253098470135F2E76C410008AD
:1040F8006C4100086C410008704100080244034606
:10410800934200D1704703F8011BF9E7F8B500BFE7
:10411800F8BC08BC9E467047F8B500BFF8BC08BCA0
:044128009E467047F8
:10412C00010002000400060008000A000C00100048
:10413C002000400080000001080402040801010175
:10414C00010101030701000000000000010203044B
:08415C00010203040607080933
:08416400D0C1FF7F0100000043
:04416C00BD02000888
:0441700099020008A8
:1041740001000000100000000090D0030090D00364
:10418400000000000000000000000000000000002B
:10419400000000000000000000000000000000001B
:1041A400000000000000000000000000000000000B
:1041B40000000000000000000000000000000000FB
:1041C40000000000000000000000000000000000EB
:1041D40000000000000000000000000000000000DB
:1041E40000000000000000000000000000000000CB
:1041F40000000000000000000000000000000000BB
:1042040000000000000000000000000000000000AA
:10421400000000000000000000000000000000009A
:10422400000000000000000000000000000000008A
:10423400000000000000000000000000000000007A
:040000050800406946
:00000001FF
